{
  "contractName": "SupplyChain",
  "abi": [
    {
      "inputs": [],
      "stateMutability": "payable",
      "type": "constructor",
      "payable": true
    },
    {
      "anonymous": false,
      "inputs": [
        {
          "indexed": true,
          "internalType": "address",
          "name": "account",
          "type": "address"
        }
      ],
      "name": "ConsumerAdded",
      "type": "event"
    },
    {
      "anonymous": false,
      "inputs": [
        {
          "indexed": true,
          "internalType": "address",
          "name": "account",
          "type": "address"
        }
      ],
      "name": "ConsumerRemoved",
      "type": "event"
    },
    {
      "anonymous": false,
      "inputs": [
        {
          "indexed": true,
          "internalType": "address",
          "name": "account",
          "type": "address"
        }
      ],
      "name": "DistributorAdded",
      "type": "event"
    },
    {
      "anonymous": false,
      "inputs": [
        {
          "indexed": true,
          "internalType": "address",
          "name": "account",
          "type": "address"
        }
      ],
      "name": "DistributorRemoved",
      "type": "event"
    },
    {
      "anonymous": false,
      "inputs": [
        {
          "indexed": true,
          "internalType": "address",
          "name": "account",
          "type": "address"
        }
      ],
      "name": "FarmerAdded",
      "type": "event"
    },
    {
      "anonymous": false,
      "inputs": [
        {
          "indexed": true,
          "internalType": "address",
          "name": "account",
          "type": "address"
        }
      ],
      "name": "FarmerRemoved",
      "type": "event"
    },
    {
      "anonymous": false,
      "inputs": [
        {
          "indexed": false,
          "internalType": "string",
          "name": "productId",
          "type": "string"
        }
      ],
      "name": "ForSale",
      "type": "event"
    },
    {
      "anonymous": false,
      "inputs": [
        {
          "indexed": false,
          "internalType": "string",
          "name": "productId",
          "type": "string"
        }
      ],
      "name": "Harvested",
      "type": "event"
    },
    {
      "anonymous": false,
      "inputs": [
        {
          "indexed": false,
          "internalType": "string",
          "name": "productId",
          "type": "string"
        }
      ],
      "name": "Packed",
      "type": "event"
    },
    {
      "anonymous": false,
      "inputs": [
        {
          "indexed": false,
          "internalType": "string",
          "name": "productId",
          "type": "string"
        }
      ],
      "name": "Processed",
      "type": "event"
    },
    {
      "anonymous": false,
      "inputs": [
        {
          "indexed": false,
          "internalType": "string",
          "name": "productId",
          "type": "string"
        }
      ],
      "name": "Purchased",
      "type": "event"
    },
    {
      "anonymous": false,
      "inputs": [
        {
          "indexed": false,
          "internalType": "string",
          "name": "productId",
          "type": "string"
        }
      ],
      "name": "Received",
      "type": "event"
    },
    {
      "anonymous": false,
      "inputs": [
        {
          "indexed": true,
          "internalType": "address",
          "name": "account",
          "type": "address"
        }
      ],
      "name": "RetailerAdded",
      "type": "event"
    },
    {
      "anonymous": false,
      "inputs": [
        {
          "indexed": true,
          "internalType": "address",
          "name": "account",
          "type": "address"
        }
      ],
      "name": "RetailerRemoved",
      "type": "event"
    },
    {
      "anonymous": false,
      "inputs": [
        {
          "indexed": false,
          "internalType": "string",
          "name": "productId",
          "type": "string"
        }
      ],
      "name": "Shipped",
      "type": "event"
    },
    {
      "anonymous": false,
      "inputs": [
        {
          "indexed": false,
          "internalType": "string",
          "name": "productId",
          "type": "string"
        }
      ],
      "name": "Sold",
      "type": "event"
    },
    {
      "anonymous": false,
      "inputs": [
        {
          "indexed": true,
          "internalType": "address",
          "name": "oldOwner",
          "type": "address"
        },
        {
          "indexed": true,
          "internalType": "address",
          "name": "newOwner",
          "type": "address"
        }
      ],
      "name": "TransferOwnership",
      "type": "event"
    },
    {
      "inputs": [
        {
          "internalType": "address",
          "name": "account",
          "type": "address"
        }
      ],
      "name": "addConsumer",
      "outputs": [],
      "stateMutability": "nonpayable",
      "type": "function"
    },
    {
      "inputs": [
        {
          "internalType": "address",
          "name": "account",
          "type": "address"
        }
      ],
      "name": "addDistributor",
      "outputs": [],
      "stateMutability": "nonpayable",
      "type": "function"
    },
    {
      "inputs": [
        {
          "internalType": "address",
          "name": "account",
          "type": "address"
        }
      ],
      "name": "addFarmer",
      "outputs": [],
      "stateMutability": "nonpayable",
      "type": "function"
    },
    {
      "inputs": [
        {
          "internalType": "address",
          "name": "account",
          "type": "address"
        }
      ],
      "name": "addRetailer",
      "outputs": [],
      "stateMutability": "nonpayable",
      "type": "function"
    },
    {
      "inputs": [
        {
          "internalType": "address",
          "name": "account",
          "type": "address"
        }
      ],
      "name": "isConsumer",
      "outputs": [
        {
          "internalType": "bool",
          "name": "",
          "type": "bool"
        }
      ],
      "stateMutability": "view",
      "type": "function",
      "constant": true
    },
    {
      "inputs": [
        {
          "internalType": "address",
          "name": "account",
          "type": "address"
        }
      ],
      "name": "isDistributor",
      "outputs": [
        {
          "internalType": "bool",
          "name": "",
          "type": "bool"
        }
      ],
      "stateMutability": "view",
      "type": "function",
      "constant": true
    },
    {
      "inputs": [
        {
          "internalType": "address",
          "name": "account",
          "type": "address"
        }
      ],
      "name": "isFarmer",
      "outputs": [
        {
          "internalType": "bool",
          "name": "",
          "type": "bool"
        }
      ],
      "stateMutability": "view",
      "type": "function",
      "constant": true
    },
    {
      "inputs": [],
      "name": "isOwner",
      "outputs": [
        {
          "internalType": "bool",
          "name": "",
          "type": "bool"
        }
      ],
      "stateMutability": "view",
      "type": "function",
      "constant": true
    },
    {
      "inputs": [
        {
          "internalType": "address",
          "name": "account",
          "type": "address"
        }
      ],
      "name": "isRetailer",
      "outputs": [
        {
          "internalType": "bool",
          "name": "",
          "type": "bool"
        }
      ],
      "stateMutability": "view",
      "type": "function",
      "constant": true
    },
    {
      "inputs": [],
      "name": "owner",
      "outputs": [
        {
          "internalType": "address",
          "name": "",
          "type": "address"
        }
      ],
      "stateMutability": "view",
      "type": "function",
      "constant": true
    },
    {
      "inputs": [],
      "name": "renounceConsumer",
      "outputs": [],
      "stateMutability": "nonpayable",
      "type": "function"
    },
    {
      "inputs": [],
      "name": "renounceDistributor",
      "outputs": [],
      "stateMutability": "nonpayable",
      "type": "function"
    },
    {
      "inputs": [],
      "name": "renounceFarmer",
      "outputs": [],
      "stateMutability": "nonpayable",
      "type": "function"
    },
    {
      "inputs": [],
      "name": "renounceOwnership",
      "outputs": [],
      "stateMutability": "nonpayable",
      "type": "function"
    },
    {
      "inputs": [],
      "name": "renounceRetailer",
      "outputs": [],
      "stateMutability": "nonpayable",
      "type": "function"
    },
    {
      "inputs": [
        {
          "internalType": "address",
          "name": "newOwner",
          "type": "address"
        }
      ],
      "name": "transferOwnership",
      "outputs": [],
      "stateMutability": "nonpayable",
      "type": "function"
    },
    {
      "inputs": [],
      "name": "kill",
      "outputs": [],
      "stateMutability": "nonpayable",
      "type": "function"
    },
    {
      "inputs": [
        {
          "internalType": "uint256",
          "name": "_upc",
          "type": "uint256"
        },
        {
          "internalType": "address",
          "name": "_originFarmerID",
          "type": "address"
        },
        {
          "internalType": "string",
          "name": "_originFarmName",
          "type": "string"
        },
        {
          "internalType": "string",
          "name": "_originFarmInformation",
          "type": "string"
        },
        {
          "internalType": "string",
          "name": "_originFarmLatitude",
          "type": "string"
        },
        {
          "internalType": "string",
          "name": "_originFarmLongitude",
          "type": "string"
        },
        {
          "internalType": "string",
          "name": "_productNotes",
          "type": "string"
        }
      ],
      "name": "harvestItem",
      "outputs": [],
      "stateMutability": "nonpayable",
      "type": "function"
    },
    {
      "inputs": [
        {
          "internalType": "string",
          "name": "_productId",
          "type": "string"
        }
      ],
      "name": "processItem",
      "outputs": [],
      "stateMutability": "nonpayable",
      "type": "function"
    },
    {
      "inputs": [
        {
          "internalType": "string",
          "name": "_productId",
          "type": "string"
        }
      ],
      "name": "packItem",
      "outputs": [],
      "stateMutability": "nonpayable",
      "type": "function"
    },
    {
      "inputs": [
        {
          "internalType": "string",
          "name": "_productId",
          "type": "string"
        },
        {
          "internalType": "uint256",
          "name": "_price",
          "type": "uint256"
        }
      ],
      "name": "sellItem",
      "outputs": [],
      "stateMutability": "nonpayable",
      "type": "function"
    },
    {
      "inputs": [
        {
          "internalType": "string",
          "name": "_productId",
          "type": "string"
        }
      ],
      "name": "buyItem",
      "outputs": [],
      "stateMutability": "payable",
      "type": "function",
      "payable": true
    },
    {
      "inputs": [
        {
          "internalType": "string",
          "name": "_productId",
          "type": "string"
        }
      ],
      "name": "shipItem",
      "outputs": [],
      "stateMutability": "nonpayable",
      "type": "function"
    },
    {
      "inputs": [
        {
          "internalType": "string",
          "name": "_productId",
          "type": "string"
        }
      ],
      "name": "receiveItem",
      "outputs": [],
      "stateMutability": "nonpayable",
      "type": "function"
    },
    {
      "inputs": [
        {
          "internalType": "string",
          "name": "_productId",
          "type": "string"
        }
      ],
      "name": "purchaseItem",
      "outputs": [],
      "stateMutability": "nonpayable",
      "type": "function"
    },
    {
      "inputs": [
        {
          "internalType": "address",
          "name": "account",
          "type": "address"
        }
      ],
      "name": "addAllRoles",
      "outputs": [],
      "stateMutability": "nonpayable",
      "type": "function"
    },
    {
      "inputs": [
        {
          "internalType": "string",
          "name": "_productId",
          "type": "string"
        }
      ],
      "name": "fetchItemBufferOne",
      "outputs": [
        {
          "internalType": "uint256",
          "name": "itemSKU",
          "type": "uint256"
        },
        {
          "internalType": "uint256",
          "name": "itemUPC",
          "type": "uint256"
        },
        {
          "internalType": "address",
          "name": "ownerID",
          "type": "address"
        },
        {
          "internalType": "address",
          "name": "originFarmerID",
          "type": "address"
        },
        {
          "internalType": "string",
          "name": "originFarmName",
          "type": "string"
        },
        {
          "internalType": "string",
          "name": "originFarmInformation",
          "type": "string"
        },
        {
          "internalType": "string",
          "name": "originFarmLatitude",
          "type": "string"
        },
        {
          "internalType": "string",
          "name": "originFarmLongitude",
          "type": "string"
        }
      ],
      "stateMutability": "view",
      "type": "function",
      "constant": true
    },
    {
      "inputs": [
        {
          "internalType": "string",
          "name": "_productId",
          "type": "string"
        }
      ],
      "name": "fetchItemBufferTwo",
      "outputs": [
        {
          "internalType": "uint256",
          "name": "itemSKU",
          "type": "uint256"
        },
        {
          "internalType": "uint256",
          "name": "itemUPC",
          "type": "uint256"
        },
        {
          "internalType": "string",
          "name": "productID",
          "type": "string"
        },
        {
          "internalType": "string",
          "name": "productNotes",
          "type": "string"
        },
        {
          "internalType": "uint256",
          "name": "productPrice",
          "type": "uint256"
        },
        {
          "internalType": "uint256",
          "name": "itemState",
          "type": "uint256"
        },
        {
          "internalType": "address",
          "name": "distributorID",
          "type": "address"
        },
        {
          "internalType": "address",
          "name": "retailerID",
          "type": "address"
        },
        {
          "internalType": "address",
          "name": "consumerID",
          "type": "address"
        }
      ],
      "stateMutability": "view",
      "type": "function",
      "constant": true
    }
  ],
  "bytecode": "0x6080604052336000806101000a81548173ffffffffffffffffffffffffffffffffffffffff021916908373ffffffffffffffffffffffffffffffffffffffff16021790555060008054906101000a900473ffffffffffffffffffffffffffffffffffffffff1673ffffffffffffffffffffffffffffffffffffffff16600073ffffffffffffffffffffffffffffffffffffffff167f5c486528ec3e3f0ea91181cff8116f02bfa350e03b8b6f12e00765adbb5af85c60405160405180910390a3620000d0336200011160201b60201c565b620000e1336200017260201b60201c565b620000f233620001d360201b60201c565b62000103336200023460201b60201c565b6001600681905550620003de565b6200012c8160016200029560201b6200208a1790919060201c565b8073ffffffffffffffffffffffffffffffffffffffff167f2e0ded4123377a3c2bc9a26f1717655a129e2f20752924d42e730ec89c83dbd060405160405180910390a250565b6200018d8160026200029560201b6200208a1790919060201c565b8073ffffffffffffffffffffffffffffffffffffffff167fddbf200aa634dc3fb81cfd68583dd1040d1c751d335e1d86b631bde3e977fea860405160405180910390a250565b620001ee8160036200029560201b6200208a1790919060201c565b8073ffffffffffffffffffffffffffffffffffffffff167f71ae26cad02663e3d92efd6ec56031a80d74a20c0ab4183faa8bf262261c9baa60405160405180910390a250565b6200024f8160046200029560201b6200208a1790919060201c565b8073ffffffffffffffffffffffffffffffffffffffff167f28b26e7a3d20aedbc5f8f2ebf7da671c0491723a2b78f47a097b0e46dee0714260405160405180910390a250565b600073ffffffffffffffffffffffffffffffffffffffff168173ffffffffffffffffffffffffffffffffffffffff161415620002d057600080fd5b620002e282826200034b60201b60201c565b15620002ed57600080fd5b60018260000160008373ffffffffffffffffffffffffffffffffffffffff1673ffffffffffffffffffffffffffffffffffffffff16815260200190815260200160002060006101000a81548160ff0219169083151502179055505050565b60008073ffffffffffffffffffffffffffffffffffffffff168273ffffffffffffffffffffffffffffffffffffffff1614156200038757600080fd5b8260000160008373ffffffffffffffffffffffffffffffffffffffff1673ffffffffffffffffffffffffffffffffffffffff16815260200190815260200160002060009054906101000a900460ff16905092915050565b61317680620003ee6000396000f3fe6080604052600436106101b75760003560e01c806380fc0ce4116100ec5780638f87fa151161008a578063bdd8a6a811610064578063bdd8a6a81461059d578063ca18e5a9146105c6578063db0e6a2f1461060a578063f2fde38b14610621576101b7565b80638f87fa151461050e578063b20a539914610537578063b942906914610560576101b7565b80638da5cb5b116100c65780638da5cb5b146104525780638ec4f5051461047d5780638f0c86fa146104a65780638f32d59b146104e3576101b7565b806380fc0ce4146103d5578063834ff739146103ec5780638bd099b814610429576101b7565b806361e6982d116101595780637250e224116101335780637250e2241461031557806372f45bcd1461033e5780637e35159a1461036757806380c3f96d146103ac576101b7565b806361e6982d146102d0578063644241db146102e7578063715018a6146102fe576101b7565b806341c0e1b51161019557806341c0e1b51461022a578063529903751461024157806356eec68d1461026a5780635da09b8814610293576101b7565b8063112940f9146101bc57806313f19926146101e5578063307c47ed14610201575b600080fd5b3480156101c857600080fd5b506101e360048036038101906101de919061291c565b61064a565b005b6101ff60048036038101906101fa9190612945565b610656565b005b34801561020d57600080fd5b5061022860048036038101906102239190612945565b6109d9565b005b34801561023657600080fd5b5061023f610b42565b005b34801561024d57600080fd5b5061026860048036038101906102639190612945565b610b73565b005b34801561027657600080fd5b50610291600480360381019061028c9190612945565b610d9c565b005b34801561029f57600080fd5b506102ba60048036038101906102b5919061291c565b610f05565b6040516102c79190612c0b565b60405180910390f35b3480156102dc57600080fd5b506102e5610f22565b005b3480156102f357600080fd5b506102fc610f2d565b005b34801561030a57600080fd5b50610313610f38565b005b34801561032157600080fd5b5061033c6004803603810190610337919061291c565b611007565b005b34801561034a57600080fd5b5061036560048036038101906103609190612945565b611013565b005b34801561037357600080fd5b5061038e60048036038101906103899190612945565b61123b565b6040516103a399989796959493929190612ce2565b60405180910390f35b3480156103b857600080fd5b506103d360048036038101906103ce919061291c565b61154f565b005b3480156103e157600080fd5b506103ea61155b565b005b3480156103f857600080fd5b50610413600480360381019061040e919061291c565b611566565b6040516104209190612c0b565b60405180910390f35b34801561043557600080fd5b50610450600480360381019061044b9190612986565b611583565b005b34801561045e57600080fd5b50610467611713565b6040516104749190612bf0565b60405180910390f35b34801561048957600080fd5b506104a4600480360381019061049f919061291c565b61173c565b005b3480156104b257600080fd5b506104cd60048036038101906104c8919061291c565b611748565b6040516104da9190612c0b565b60405180910390f35b3480156104ef57600080fd5b506104f8611765565b6040516105059190612c0b565b60405180910390f35b34801561051a57600080fd5b5061053560048036038101906105309190612945565b6117bc565b005b34801561054357600080fd5b5061055e6004803603810190610559919061291c565b611925565b005b34801561056c57600080fd5b506105876004803603810190610582919061291c565b61194c565b6040516105949190612c0b565b60405180910390f35b3480156105a957600080fd5b506105c460048036038101906105bf91906129da565b611969565b005b3480156105d257600080fd5b506105ed60048036038101906105e89190612945565b611ccb565b604051610601989796959493929190612c48565b60405180910390f35b34801561061657600080fd5b5061061f612062565b005b34801561062d57600080fd5b506106486004803603810190610643919061291c565b61206d565b005b61065381612136565b50565b61065f33611748565b61066857600080fd5b80600360078111156106a3577f4e487b7100000000000000000000000000000000000000000000000000000000600052602160045260246000fd5b6007826040516106b39190612baa565b9081526020016040518091039020600b0160009054906101000a900460ff16600781111561070a577f4e487b7100000000000000000000000000000000000000000000000000000000600052602160045260246000fd5b1461071457600080fd5b6007826040516107249190612baa565b9081526020016040518091039020600a01548034101561074357600080fd5b8260046007856040516107569190612baa565b9081526020016040518091039020600b0160006101000a81548160ff021916908360078111156107af577f4e487b7100000000000000000000000000000000000000000000000000000000600052602160045260246000fd5b0217905550336007856040516107c59190612baa565b908152602001604051809103902060020160006101000a81548173ffffffffffffffffffffffffffffffffffffffff021916908373ffffffffffffffffffffffffffffffffffffffff160217905550336007856040516108259190612baa565b9081526020016040518091039020600b0160016101000a81548173ffffffffffffffffffffffffffffffffffffffff021916908373ffffffffffffffffffffffffffffffffffffffff1602179055506007846040516108849190612baa565b908152602001604051809103902060030160009054906101000a900473ffffffffffffffffffffffffffffffffffffffff1673ffffffffffffffffffffffffffffffffffffffff166108fc6007866040516108df9190612baa565b9081526020016040518091039020600a01549081150290604051600060405180830381858888f1935050505015801561091c573d6000803e3d6000fd5b507fe849b0af4ecf208b975210b68de7f7e7a16da0804e997c5586fd91397ea96f5a8460405161094c9190612c26565b60405180910390a160006007826040516109669190612baa565b9081526020016040518091039020600a01549050600081346109889190612e81565b90503373ffffffffffffffffffffffffffffffffffffffff166108fc829081150290604051600060405180830381858888f193505050501580156109d0573d6000803e3d6000fd5b50505050505050565b8060016007811115610a14577f4e487b7100000000000000000000000000000000000000000000000000000000600052602160045260246000fd5b600782604051610a249190612baa565b9081526020016040518091039020600b0160009054906101000a900460ff166007811115610a7b577f4e487b7100000000000000000000000000000000000000000000000000000000600052602160045260246000fd5b14610a8557600080fd5b610a8e3361194c565b610a9757600080fd5b6002600783604051610aa99190612baa565b9081526020016040518091039020600b0160006101000a81548160ff02191690836007811115610b02577f4e487b7100000000000000000000000000000000000000000000000000000000600052602160045260246000fd5b02179055507f3ea707e6edd0cf74fca91798b1efc0fd5dbf0627e3ce3f8d016c7d2d9d4107f682604051610b369190612c26565b60405180910390a15050565b610b4a611765565b610b5357600080fd5b610b5b611713565b73ffffffffffffffffffffffffffffffffffffffff16ff5b8060056007811115610bae577f4e487b7100000000000000000000000000000000000000000000000000000000600052602160045260246000fd5b600782604051610bbe9190612baa565b9081526020016040518091039020600b0160009054906101000a900460ff166007811115610c15577f4e487b7100000000000000000000000000000000000000000000000000000000600052602160045260246000fd5b14610c1f57600080fd5b610c2833610f05565b610c3157600080fd5b33600783604051610c429190612baa565b908152602001604051809103902060020160006101000a81548173ffffffffffffffffffffffffffffffffffffffff021916908373ffffffffffffffffffffffffffffffffffffffff16021790555033600783604051610ca29190612baa565b9081526020016040518091039020600c0160006101000a81548173ffffffffffffffffffffffffffffffffffffffff021916908373ffffffffffffffffffffffffffffffffffffffff1602179055506006600783604051610d039190612baa565b9081526020016040518091039020600b0160006101000a81548160ff02191690836007811115610d5c577f4e487b7100000000000000000000000000000000000000000000000000000000600052602160045260246000fd5b02179055507feb7115a99b4ff3975015662e8f8d0434763af973215290ec6d1f8068233ff79f82604051610d909190612c26565b60405180910390a15050565b8060046007811115610dd7577f4e487b7100000000000000000000000000000000000000000000000000000000600052602160045260246000fd5b600782604051610de79190612baa565b9081526020016040518091039020600b0160009054906101000a900460ff166007811115610e3e577f4e487b7100000000000000000000000000000000000000000000000000000000600052602160045260246000fd5b14610e4857600080fd5b610e5133611748565b610e5a57600080fd5b6005600783604051610e6c9190612baa565b9081526020016040518091039020600b0160006101000a81548160ff02191690836007811115610ec5577f4e487b7100000000000000000000000000000000000000000000000000000000600052602160045260246000fd5b02179055507f52422beba6de2d83575c947f2bfd24f7dffafb452049fe083d1c010b174b832682604051610ef99190612c26565b60405180910390a15050565b6000610f1b82600361219090919063ffffffff16565b9050919050565b610f2b33612222565b565b610f363361227c565b565b610f40611765565b610f4957600080fd5b600073ffffffffffffffffffffffffffffffffffffffff1660008054906101000a900473ffffffffffffffffffffffffffffffffffffffff1673ffffffffffffffffffffffffffffffffffffffff167f5c486528ec3e3f0ea91181cff8116f02bfa350e03b8b6f12e00765adbb5af85c60405160405180910390a360008060006101000a81548173ffffffffffffffffffffffffffffffffffffffff021916908373ffffffffffffffffffffffffffffffffffffffff160217905550565b611010816122d6565b50565b806006600781111561104e577f4e487b7100000000000000000000000000000000000000000000000000000000600052602160045260246000fd5b60078260405161105e9190612baa565b9081526020016040518091039020600b0160009054906101000a900460ff1660078111156110b5577f4e487b7100000000000000000000000000000000000000000000000000000000600052602160045260246000fd5b146110bf57600080fd5b6110c833611566565b6110d157600080fd5b336007836040516110e29190612baa565b908152602001604051809103902060020160006101000a81548173ffffffffffffffffffffffffffffffffffffffff021916908373ffffffffffffffffffffffffffffffffffffffff160217905550336007836040516111429190612baa565b9081526020016040518091039020600d0160006101000a81548173ffffffffffffffffffffffffffffffffffffffff021916908373ffffffffffffffffffffffffffffffffffffffff160217905550600780836040516111a29190612baa565b9081526020016040518091039020600b0160006101000a81548160ff021916908360078111156111fb577f4e487b7100000000000000000000000000000000000000000000000000000000600052602160045260246000fd5b02179055507f8311fab0ec974853c4f583a747aabd5f7378272b72ebda4550904f81706f4c9d8260405161122f9190612c26565b60405180910390a15050565b600080606080600080600080600060078a6040516112599190612baa565b908152602001604051809103902060000154985060078a60405161127d9190612baa565b908152602001604051809103902060010154975060078a6040516112a19190612baa565b908152602001604051809103902060080180546112bd90612f3f565b80601f01602080910402602001604051908101604052809291908181526020018280546112e990612f3f565b80156113365780601f1061130b57610100808354040283529160200191611336565b820191906000526020600020905b81548152906001019060200180831161131957829003601f168201915b5050505050965060078a60405161134d9190612baa565b9081526020016040518091039020600901805461136990612f3f565b80601f016020809104026020016040519081016040528092919081815260200182805461139590612f3f565b80156113e25780601f106113b7576101008083540402835291602001916113e2565b820191906000526020600020905b8154815290600101906020018083116113c557829003601f168201915b5050505050955060078a6040516113f99190612baa565b9081526020016040518091039020600a0154945060078a60405161141d9190612baa565b9081526020016040518091039020600b0160009054906101000a900460ff166007811115611474577f4e487b7100000000000000000000000000000000000000000000000000000000600052602160045260246000fd5b935060078a6040516114869190612baa565b9081526020016040518091039020600b0160019054906101000a900473ffffffffffffffffffffffffffffffffffffffff16925060078a6040516114ca9190612baa565b9081526020016040518091039020600c0160009054906101000a900473ffffffffffffffffffffffffffffffffffffffff16915060078a60405161150e9190612baa565b9081526020016040518091039020600d0160009054906101000a900473ffffffffffffffffffffffffffffffffffffffff1690509193959799909294969850565b61155881612330565b50565b6115643361238a565b565b600061157c82600461219090919063ffffffff16565b9050919050565b81600260078111156115be577f4e487b7100000000000000000000000000000000000000000000000000000000600052602160045260246000fd5b6007826040516115ce9190612baa565b9081526020016040518091039020600b0160009054906101000a900460ff166007811115611625577f4e487b7100000000000000000000000000000000000000000000000000000000600052602160045260246000fd5b1461162f57600080fd5b6116383361194c565b61164157600080fd5b60036007846040516116539190612baa565b9081526020016040518091039020600b0160006101000a81548160ff021916908360078111156116ac577f4e487b7100000000000000000000000000000000000000000000000000000000600052602160045260246000fd5b0217905550816007846040516116c29190612baa565b9081526020016040518091039020600a01819055507f98148e29987d98a6c34ae3c173a97a21402ad5f0d25bc3b2438348aed9bcf11e836040516117069190612c26565b60405180910390a1505050565b60008060009054906101000a900473ffffffffffffffffffffffffffffffffffffffff16905090565b611745816123e4565b50565b600061175e82600261219090919063ffffffff16565b9050919050565b60008060009054906101000a900473ffffffffffffffffffffffffffffffffffffffff1673ffffffffffffffffffffffffffffffffffffffff163373ffffffffffffffffffffffffffffffffffffffff1614905090565b80600060078111156117f7577f4e487b7100000000000000000000000000000000000000000000000000000000600052602160045260246000fd5b6007826040516118079190612baa565b9081526020016040518091039020600b0160009054906101000a900460ff16600781111561185e577f4e487b7100000000000000000000000000000000000000000000000000000000600052602160045260246000fd5b1461186857600080fd5b6118713361194c565b61187a57600080fd5b600160078360405161188c9190612baa565b9081526020016040518091039020600b0160006101000a81548160ff021916908360078111156118e5577f4e487b7100000000000000000000000000000000000000000000000000000000600052602160045260246000fd5b02179055507f57551da443eabe56020121e95464e228f6f7cabaf10cce8ca84a1229706991ad826040516119199190612c26565b60405180910390a15050565b61192e8161154f565b61193781611007565b6119408161173c565b6119498161064a565b50565b600061196282600161219090919063ffffffff16565b9050919050565b6119723361194c565b61197b57600080fd5b60006119868861243e565b61199160065461243e565b6040516020016119a2929190612bc1565b6040516020818303038152906040529050876007826040516119c49190612baa565b9081526020016040518091039020600101819055506006546007826040516119ec9190612baa565b90815260200160405180910390206000018190555086600782604051611a129190612baa565b908152602001604051809103902060020160006101000a81548173ffffffffffffffffffffffffffffffffffffffff021916908373ffffffffffffffffffffffffffffffffffffffff16021790555080600782604051611a729190612baa565b90815260200160405180910390206008019080519060200190611a969291906127e7565b5086600782604051611aa89190612baa565b908152602001604051809103902060030160006101000a81548173ffffffffffffffffffffffffffffffffffffffff021916908373ffffffffffffffffffffffffffffffffffffffff16021790555085600782604051611b089190612baa565b90815260200160405180910390206004019080519060200190611b2c9291906127e7565b5084600782604051611b3e9190612baa565b90815260200160405180910390206005019080519060200190611b629291906127e7565b5083600782604051611b749190612baa565b90815260200160405180910390206006019080519060200190611b989291906127e7565b5082600782604051611baa9190612baa565b90815260200160405180910390206007019080519060200190611bce9291906127e7565b5081600782604051611be09190612baa565b90815260200160405180910390206009019080519060200190611c049291906127e7565b506000600782604051611c179190612baa565b9081526020016040518091039020600b0160006101000a81548160ff02191690836007811115611c70577f4e487b7100000000000000000000000000000000000000000000000000000000600052602160045260246000fd5b02179055506001600654611c849190612dfa565b6006819055507f0ded84c40c107d86701cc04586f7b2bb17e5d1ab979fdd31b0816ff783b21bec81604051611cb99190612c26565b60405180910390a15050505050505050565b600080600080606080606080600789604051611ce79190612baa565b9081526020016040518091039020600001549750600789604051611d0b9190612baa565b9081526020016040518091039020600101549650600789604051611d2f9190612baa565b908152602001604051809103902060020160009054906101000a900473ffffffffffffffffffffffffffffffffffffffff169550600789604051611d739190612baa565b908152602001604051809103902060030160009054906101000a900473ffffffffffffffffffffffffffffffffffffffff169450600789604051611db79190612baa565b90815260200160405180910390206004018054611dd390612f3f565b80601f0160208091040260200160405190810160405280929190818152602001828054611dff90612f3f565b8015611e4c5780601f10611e2157610100808354040283529160200191611e4c565b820191906000526020600020905b815481529060010190602001808311611e2f57829003601f168201915b50505050509350600789604051611e639190612baa565b90815260200160405180910390206005018054611e7f90612f3f565b80601f0160208091040260200160405190810160405280929190818152602001828054611eab90612f3f565b8015611ef85780601f10611ecd57610100808354040283529160200191611ef8565b820191906000526020600020905b815481529060010190602001808311611edb57829003601f168201915b50505050509250600789604051611f0f9190612baa565b90815260200160405180910390206006018054611f2b90612f3f565b80601f0160208091040260200160405190810160405280929190818152602001828054611f5790612f3f565b8015611fa45780601f10611f7957610100808354040283529160200191611fa4565b820191906000526020600020905b815481529060010190602001808311611f8757829003601f168201915b50505050509150600789604051611fbb9190612baa565b90815260200160405180910390206007018054611fd790612f3f565b80601f016020809104026020016040519081016040528092919081815260200182805461200390612f3f565b80156120505780601f1061202557610100808354040283529160200191612050565b820191906000526020600020905b81548152906001019060200180831161203357829003601f168201915b50505050509050919395975091939597565b61206b336125eb565b565b612075611765565b61207e57600080fd5b61208781612645565b50565b600073ffffffffffffffffffffffffffffffffffffffff168173ffffffffffffffffffffffffffffffffffffffff1614156120c457600080fd5b6120ce8282612190565b156120d857600080fd5b60018260000160008373ffffffffffffffffffffffffffffffffffffffff1673ffffffffffffffffffffffffffffffffffffffff16815260200190815260200160002060006101000a81548160ff0219169083151502179055505050565b61214a81600461208a90919063ffffffff16565b8073ffffffffffffffffffffffffffffffffffffffff167f28b26e7a3d20aedbc5f8f2ebf7da671c0491723a2b78f47a097b0e46dee0714260405160405180910390a250565b60008073ffffffffffffffffffffffffffffffffffffffff168273ffffffffffffffffffffffffffffffffffffffff1614156121cb57600080fd5b8260000160008373ffffffffffffffffffffffffffffffffffffffff1673ffffffffffffffffffffffffffffffffffffffff16815260200190815260200160002060009054906101000a900460ff16905092915050565b61223681600461273c90919063ffffffff16565b8073ffffffffffffffffffffffffffffffffffffffff167fe3f5ed5f263f1f01764a96edfc7d025f511ec5f7d180e8816908b78bcf74f09860405160405180910390a250565b61229081600261273c90919063ffffffff16565b8073ffffffffffffffffffffffffffffffffffffffff167f126174f6cf49c81cdb4a9214c6b8f037bef55b4ec31e4fc776cea2a1c8a88d5960405160405180910390a250565b6122ea81600261208a90919063ffffffff16565b8073ffffffffffffffffffffffffffffffffffffffff167fddbf200aa634dc3fb81cfd68583dd1040d1c751d335e1d86b631bde3e977fea860405160405180910390a250565b61234481600161208a90919063ffffffff16565b8073ffffffffffffffffffffffffffffffffffffffff167f2e0ded4123377a3c2bc9a26f1717655a129e2f20752924d42e730ec89c83dbd060405160405180910390a250565b61239e81600161273c90919063ffffffff16565b8073ffffffffffffffffffffffffffffffffffffffff167fa5e0f060af304ab17dd418c7927e3da3ae7868189bf387aee09ab179ccc572f260405160405180910390a250565b6123f881600361208a90919063ffffffff16565b8073ffffffffffffffffffffffffffffffffffffffff167f71ae26cad02663e3d92efd6ec56031a80d74a20c0ab4183faa8bf262261c9baa60405160405180910390a250565b60606000821415612486576040518060400160405280600181526020017f300000000000000000000000000000000000000000000000000000000000000081525090506125e6565b600082905060005b600082146124b85780806124a190612fa2565b915050600a826124b19190612e50565b915061248e565b60008167ffffffffffffffff8111156124fa577f4e487b7100000000000000000000000000000000000000000000000000000000600052604160045260246000fd5b6040519080825280601f01601f19166020018201604052801561252c5781602001600182028036833780820191505090505b5090505b600085146125df576001826125459190612e81565b9150600a856125549190612feb565b60306125609190612dfa565b60f81b81838151811061259c577f4e487b7100000000000000000000000000000000000000000000000000000000600052603260045260246000fd5b60200101907effffffffffffffffffffffffffffffffffffffffffffffffffffffffffffff1916908160001a905350600a856125d89190612e50565b9450612530565b8093505050505b919050565b6125ff81600361273c90919063ffffffff16565b8073ffffffffffffffffffffffffffffffffffffffff167fdb7176e79cffef81cb01767dd0447a0b24bb72ca9778d4b245581086b2a7e6db60405160405180910390a250565b600073ffffffffffffffffffffffffffffffffffffffff168173ffffffffffffffffffffffffffffffffffffffff16141561267f57600080fd5b8073ffffffffffffffffffffffffffffffffffffffff1660008054906101000a900473ffffffffffffffffffffffffffffffffffffffff1673ffffffffffffffffffffffffffffffffffffffff167f5c486528ec3e3f0ea91181cff8116f02bfa350e03b8b6f12e00765adbb5af85c60405160405180910390a3806000806101000a81548173ffffffffffffffffffffffffffffffffffffffff021916908373ffffffffffffffffffffffffffffffffffffffff16021790555050565b600073ffffffffffffffffffffffffffffffffffffffff168173ffffffffffffffffffffffffffffffffffffffff16141561277657600080fd5b6127808282612190565b61278957600080fd5b60008260000160008373ffffffffffffffffffffffffffffffffffffffff1673ffffffffffffffffffffffffffffffffffffffff16815260200190815260200160002060006101000a81548160ff0219169083151502179055505050565b8280546127f390612f3f565b90600052602060002090601f016020900481019282612815576000855561285c565b82601f1061282e57805160ff191683800117855561285c565b8280016001018555821561285c579182015b8281111561285b578251825591602001919060010190612840565b5b509050612869919061286d565b5090565b5b8082111561288657600081600090555060010161286e565b5090565b600061289d61289884612da2565b612d7d565b9050828152602081018484840111156128b557600080fd5b6128c0848285612efd565b509392505050565b6000813590506128d781613112565b92915050565b600082601f8301126128ee57600080fd5b81356128fe84826020860161288a565b91505092915050565b60008135905061291681613129565b92915050565b60006020828403121561292e57600080fd5b600061293c848285016128c8565b91505092915050565b60006020828403121561295757600080fd5b600082013567ffffffffffffffff81111561297157600080fd5b61297d848285016128dd565b91505092915050565b6000806040838503121561299957600080fd5b600083013567ffffffffffffffff8111156129b357600080fd5b6129bf858286016128dd565b92505060206129d085828601612907565b9150509250929050565b600080600080600080600060e0888a0312156129f557600080fd5b6000612a038a828b01612907565b9750506020612a148a828b016128c8565b965050604088013567ffffffffffffffff811115612a3157600080fd5b612a3d8a828b016128dd565b955050606088013567ffffffffffffffff811115612a5a57600080fd5b612a668a828b016128dd565b945050608088013567ffffffffffffffff811115612a8357600080fd5b612a8f8a828b016128dd565b93505060a088013567ffffffffffffffff811115612aac57600080fd5b612ab88a828b016128dd565b92505060c088013567ffffffffffffffff811115612ad557600080fd5b612ae18a828b016128dd565b91505092959891949750929550565b612af981612eb5565b82525050565b612b0881612ec7565b82525050565b6000612b1982612dd3565b612b238185612dde565b9350612b33818560208601612f0c565b612b3c816130d8565b840191505092915050565b6000612b5282612dd3565b612b5c8185612def565b9350612b6c818560208601612f0c565b80840191505092915050565b6000612b85600183612def565b9150612b90826130e9565b600182019050919050565b612ba481612ef3565b82525050565b6000612bb68284612b47565b915081905092915050565b6000612bcd8285612b47565b9150612bd882612b78565b9150612be48284612b47565b91508190509392505050565b6000602082019050612c056000830184612af0565b92915050565b6000602082019050612c206000830184612aff565b92915050565b60006020820190508181036000830152612c408184612b0e565b905092915050565b600061010082019050612c5e600083018b612b9b565b612c6b602083018a612b9b565b612c786040830189612af0565b612c856060830188612af0565b8181036080830152612c978187612b0e565b905081810360a0830152612cab8186612b0e565b905081810360c0830152612cbf8185612b0e565b905081810360e0830152612cd38184612b0e565b90509998505050505050505050565b600061012082019050612cf8600083018c612b9b565b612d05602083018b612b9b565b8181036040830152612d17818a612b0e565b90508181036060830152612d2b8189612b0e565b9050612d3a6080830188612b9b565b612d4760a0830187612b9b565b612d5460c0830186612af0565b612d6160e0830185612af0565b612d6f610100830184612af0565b9a9950505050505050505050565b6000612d87612d98565b9050612d938282612f71565b919050565b6000604051905090565b600067ffffffffffffffff821115612dbd57612dbc6130a9565b5b612dc6826130d8565b9050602081019050919050565b600081519050919050565b600082825260208201905092915050565b600081905092915050565b6000612e0582612ef3565b9150612e1083612ef3565b9250827fffffffffffffffffffffffffffffffffffffffffffffffffffffffffffffffff03821115612e4557612e4461301c565b5b828201905092915050565b6000612e5b82612ef3565b9150612e6683612ef3565b925082612e7657612e7561304b565b5b828204905092915050565b6000612e8c82612ef3565b9150612e9783612ef3565b925082821015612eaa57612ea961301c565b5b828203905092915050565b6000612ec082612ed3565b9050919050565b60008115159050919050565b600073ffffffffffffffffffffffffffffffffffffffff82169050919050565b6000819050919050565b82818337600083830152505050565b60005b83811015612f2a578082015181840152602081019050612f0f565b83811115612f39576000848401525b50505050565b60006002820490506001821680612f5757607f821691505b60208210811415612f6b57612f6a61307a565b5b50919050565b612f7a826130d8565b810181811067ffffffffffffffff82111715612f9957612f986130a9565b5b80604052505050565b6000612fad82612ef3565b91507fffffffffffffffffffffffffffffffffffffffffffffffffffffffffffffffff821415612fe057612fdf61301c565b5b600182019050919050565b6000612ff682612ef3565b915061300183612ef3565b9250826130115761301061304b565b5b828206905092915050565b7f4e487b7100000000000000000000000000000000000000000000000000000000600052601160045260246000fd5b7f4e487b7100000000000000000000000000000000000000000000000000000000600052601260045260246000fd5b7f4e487b7100000000000000000000000000000000000000000000000000000000600052602260045260246000fd5b7f4e487b7100000000000000000000000000000000000000000000000000000000600052604160045260246000fd5b6000601f19601f8301169050919050565b7f2d00000000000000000000000000000000000000000000000000000000000000600082015250565b61311b81612eb5565b811461312657600080fd5b50565b61313281612ef3565b811461313d57600080fd5b5056fea26469706673582212201ecdef194ea00ce58979a895001d65b1a6dd71f504998e919192c2b17725542264736f6c63430008010033",
  "immutableReferences": {},
  "source": "//SPDX-License-Identifier: Unlincensed\npragma solidity ^0.8.0;\n// Define a contract 'Supplychain'\n\nimport \"../coffeeaccesscontrol/FarmerRole.sol\";\nimport \"../coffeeaccesscontrol/DistributorRole.sol\";\nimport \"../coffeeaccesscontrol/RetailerRole.sol\";\nimport \"../coffeeaccesscontrol/ConsumerRole.sol\";\nimport \"../coffeecore/Ownable.sol\";\nimport \"../utils/Strings.sol\";\n\ncontract SupplyChain is Ownable, FarmerRole, DistributorRole, RetailerRole, ConsumerRole{\n\n  // Define a variable called 'upc' for Universal Product Code (UPC)\n  uint  upc;\n\n  // Define a variable called 'sku' for Stock Keeping Unit (SKU)\n  uint  sku;\n\n  // Define a public mapping 'items' that maps the UPC to an Item.\n  mapping (string => Item) items;\n\n  // Define a public mapping 'itemsHistory' that maps the ProductId to an array of TxHash, \n  // that track its journey through the supply chain -- to be sent from DApp.\n  mapping (uint => string[]) itemsHistory;\n  \n  // Define enum 'State' with the following values:\n  enum State \n  { \n    Harvested,  // 0\n    Processed,  // 1\n    Packed,     // 2\n    ForSale,    // 3\n    Sold,       // 4\n    Shipped,    // 5\n    Received,   // 6\n    Purchased   // 7\n    }\n\n  State constant defaultState = State.Harvested;\n\n  // Define a struct 'Item' with the following fields:\n  struct Item {\n    uint    sku;  // Stock Keeping Unit (SKU)\n    uint    upc; // Universal Product Code (UPC), generated by the Farmer, goes on the package, can be verified by the Consumer\n    address ownerID;  // Metamask-Ethereum address of the current owner as the product moves through 8 stages\n    address originFarmerID; // Metamask-Ethereum address of the Farmer\n    string  originFarmName; // Farmer Name\n    string  originFarmInformation;  // Farmer Information\n    string  originFarmLatitude; // Farm Latitude\n    string  originFarmLongitude;  // Farm Longitude\n    string  productID;  // Product ID potentially a combination of upc + sku\n    string  productNotes; // Product Notes\n    uint    productPrice; // Product Price\n    State   itemState;  // Product State as represented in the enum above\n    address distributorID;  // Metamask-Ethereum address of the Distributor\n    address retailerID; // Metamask-Ethereum address of the Retailer\n    address consumerID; // Metamask-Ethereum address of the Consumer\n  }\n\n  // Define 8 events with the same 8 state values and accept 'upc' as input argument\n  event Harvested(string productId);\n  event Processed(string productId);\n  event Packed(string productId);\n  event ForSale(string productId);\n  event Sold(string productId);\n  event Shipped(string productId);\n  event Received(string productId);\n  event Purchased(string productId);\n\n  // Define a modifer that verifies the Caller\n  modifier verifyCaller (address _address) {\n    require(msg.sender == _address); \n    _;\n  }\n\n  // Define a modifier that checks if the paid amount is sufficient to cover the price\n  modifier paidEnough(uint _price) { \n    require(msg.value >= _price); \n    _;\n  }\n  \n  // Define a modifier that checks the price and refunds the remaining balance\n  modifier checkValue(string memory _productId) {\n    _;\n    uint _price = items[_productId].productPrice;\n    uint amountToReturn = msg.value - _price;\n    payable(msg.sender).transfer(amountToReturn);\n  }\n\n  // Define a modifier that checks if an item.state of a productId is Harvested\n  modifier harvested(string memory _productId) {\n    require(items[_productId].itemState == State.Harvested);\n    _;\n  }\n\n  // Define a modifier that checks if an item.state of a productId is Processed\n  modifier processed(string memory _productId) {\n    require(items[_productId].itemState == State.Processed);\n    _;\n  }\n  \n  // Define a modifier that checks if an item.state of a productId is Packed\n  modifier packed(string memory _productId) {\n    require(items[_productId].itemState == State.Packed);\n    _;\n  }\n\n  // Define a modifier that checks if an item.state of a productId is ForSale\n  modifier forSale(string memory _productId) {\n    require(items[_productId].itemState == State.ForSale);\n    _;\n  }\n\n  // Define a modifier that checks if an item.state of a productId is Sold\n  modifier sold(string memory _productId) {\n    require(items[_productId].itemState == State.Sold);\n    _;\n  }\n  \n  // Define a modifier that checks if an item.state of a productId is Shipped\n  modifier shipped(string memory _productId) {\n    require(items[_productId].itemState == State.Shipped);\n    _;\n  }\n\n  // Define a modifier that checks if an item.state of a productId is Received\n  modifier received(string memory _productId) {\n    require(items[_productId].itemState == State.Received);\n    _;\n  }\n\n  // Define a modifier that checks if an item.state of a productId is Purchased\n  modifier purchased(string memory _productId) {\n    require(items[_productId].itemState == State.Purchased);    \n    _;\n  }\n\n  // In the constructor set 'owner' to the address that instantiated the contract\n  // and set 'sku' to 1\n  // and set 'upc' to 1\n  constructor() Ownable() FarmerRole() DistributorRole() RetailerRole() ConsumerRole() payable {\n    sku = 1;\n  }\n\n  // Define a function 'kill' if required\n  function kill() public onlyOwner {\n      selfdestruct(payable(owner()));\n    \n  }\n\n  // Define a function 'harvestItem' that allows a farmer to mark an item 'Harvested'\n  function harvestItem(uint _upc, address _originFarmerID, string memory _originFarmName, string memory _originFarmInformation, string memory _originFarmLatitude, string  memory _originFarmLongitude, string  memory _productNotes) public \n  onlyFarmer\n  {\n    // Add the new item as part of Harvest\n    string memory _productId = string(abi.encodePacked(Strings.toString(_upc), \"-\", Strings.toString(sku)));\n\n    items[_productId].upc = _upc;\n    items[_productId].sku = sku;\n    items[_productId].ownerID = _originFarmerID;\n    items[_productId].productID = _productId;\n    items[_productId].originFarmerID = _originFarmerID;\n    items[_productId].originFarmName = _originFarmName;\n    items[_productId].originFarmInformation = _originFarmInformation;\n    items[_productId].originFarmLatitude = _originFarmLatitude;\n    items[_productId].originFarmLongitude = _originFarmLongitude;\n    items[_productId].productNotes = _productNotes;\n    items[_productId].itemState = State.Harvested;\n   \n    \n\n    \n    // Increment sku\n    sku = sku + 1;\n\n    // Emit the appropriate event\n    emit Harvested(_productId);\n    \n  }\n\n  // Define a function 'processtItem' that allows a farmer to mark an item 'Processed'\n  function processItem(string memory _productId) public \n  // Call modifier to check if upc has passed previous supply chain stage\n  harvested(_productId)\n  // Call modifier to verify caller of this function\n  onlyFarmer\n  \n  {\n    // Update the appropriate fields\n    items[_productId].itemState = State.Processed;\n    // Emit the appropriate event\n    emit Processed(_productId);\n    \n  }\n\n  // Define a function 'packItem' that allows a farmer to mark an item 'Packed'\n  function packItem(string memory _productId) public \n  // Call modifier to check if productId has passed previous supply chain stage\n  processed(_productId)\n  // Call modifier to verify caller of this function\n  onlyFarmer\n  {\n    // Update the appropriate fields\n    items[_productId].itemState = State.Packed;\n    \n    // Emit the appropriate event\n    emit Packed(_productId);\n    \n  }\n\n  // Define a function 'sellItem' that allows a farmer to mark an item 'ForSale'\n  function sellItem(string memory _productId, uint _price) public \n  // Call modifier to check if productId has passed previous supply chain stage\n  packed(_productId)\n  // Call modifier to verify caller of this function\n  onlyFarmer\n  {\n    // Update the appropriate fields\n    items[_productId].itemState = State.ForSale;\n    items[_productId].productPrice = _price;\n    // Emit the appropriate event\n    emit ForSale(_productId);\n  }\n\n  // Define a function 'buyItem' that allows the disributor to mark an item 'Sold'\n  // Use the above defined modifiers to check if the item is available for sale, if the buyer has paid enough, \n  // and any excess ether sent is refunded back to the buyer\n  function buyItem(string memory _productId) public payable \n    onlyDistributor\n    // Call modifier to check if productID has passed previous supply chain stage\n    forSale(_productId)\n    // Call modifer to check if buyer has paid enough\n    paidEnough(items[_productId].productPrice)\n    // Call modifer to send any excess ether back to buyer\n    checkValue(_productId)\n    {\n    \n    // Update the appropriate fields - ownerID, distributorID, itemState\n    items[_productId].itemState = State.Sold;\n    items[_productId].ownerID = msg.sender;\n    items[_productId].distributorID = msg.sender;\n    // Transfer money to farmer\n    payable(items[_productId].originFarmerID).transfer(items[_productId].productPrice);\n    // emit the appropriate event\n    emit Sold(_productId);\n  }\n\n  // Define a function 'shipItem' that allows the distributor to mark an item 'Shipped'\n  // Use the above modifers to check if the item is sold\n  function shipItem(string memory _productId) public \n    // Call modifier to check if productId has passed previous supply chain stage\n    sold(_productId)\n    // Call modifier to verify caller of this function\n    onlyDistributor\n    {\n    // Update the appropriate fields\n    items[_productId].itemState = State.Shipped;\n    // Emit the appropriate event\n    emit Shipped(_productId);\n    \n  }\n\n  // Define a function 'receiveItem' that allows the retailer to mark an item 'Received'\n  // Use the above modifiers to check if the item is shipped\n  function receiveItem(string memory _productId) public \n    // Call modifier to check if productId has passed previous supply chain stage\n    shipped(_productId)\n    // Access Control List enforced by calling Smart Contract / DApp\n    onlyRetailer\n    {\n    // Update the appropriate fields - ownerID, retailerID, itemState\n    items[_productId].ownerID = msg.sender;\n    items[_productId].retailerID = msg.sender;\n    items[_productId].itemState = State.Received;\n    \n    // Emit the appropriate event\n    emit Received(_productId);\n    \n  }\n\n  // Define a function 'purchaseItem' that allows the consumer to mark an item 'Purchased'\n  // Use the above modifiers to check if the item is received\n  function purchaseItem(string memory _productId) public \n    // Call modifier to check if productId has passed previous supply chain stage\n    received(_productId)\n    // Access Control List enforced by calling Smart Contract / DApp\n    onlyConsumer\n    {\n    // Update the appropriate fields - ownerID, consumerID, itemState\n    items[_productId].ownerID = msg.sender;\n    items[_productId].consumerID = msg.sender;\n    items[_productId].itemState = State.Purchased;\n    \n    // Emit the appropriate event\n    emit Purchased(_productId);\n    \n  }\n\n//give account all roles, this function is for testing purposes\n  function addAllRoles(address account) public {\n    addFarmer(account);\n    addDistributor(account);\n    addRetailer(account);\n    addConsumer(account);\n  }\n\n  // Define a function 'fetchItemBufferOne' that fetches the data\n  function fetchItemBufferOne(string memory _productId) public view returns \n  (\n  uint    itemSKU,\n  uint    itemUPC,\n  address ownerID,\n  address originFarmerID,\n  string  memory originFarmName,\n  string  memory originFarmInformation,\n  string  memory originFarmLatitude,\n  string  memory originFarmLongitude\n  ) \n  {\n  // Assign values to the 8 parameters\n\n  itemSKU = items[_productId].sku;\n  itemUPC = items[_productId].upc;\n  ownerID = items[_productId].ownerID;\n  originFarmerID = items[_productId].originFarmerID;\n  originFarmName = items[_productId].originFarmName;\n  originFarmInformation = items[_productId].originFarmInformation;\n  originFarmLatitude = items[_productId].originFarmLatitude;\n  originFarmLongitude = items[_productId].originFarmLongitude;\n  \n    \n  return \n  (\n  itemSKU,\n  itemUPC,\n  ownerID,\n  originFarmerID,\n  originFarmName,\n  originFarmInformation,\n  originFarmLatitude,\n  originFarmLongitude\n  );\n  }\n\n  // Define a function 'fetchItemBufferTwo' that fetches the data\n  function fetchItemBufferTwo(string memory _productId) public view returns \n  (\n  uint    itemSKU,\n  uint    itemUPC,\n  string  memory productID,\n  string  memory productNotes,\n  uint    productPrice,\n  uint    itemState,\n  address distributorID,\n  address retailerID,\n  address consumerID\n  ) \n  {\n    // Assign values to the 9 parameters\n  itemSKU = items[_productId].sku;\n  itemUPC = items[_productId].upc;\n  productID = items[_productId].productID;\n  productNotes = items[_productId].productNotes;\n  productPrice = items[_productId].productPrice;\n  itemState = uint(items[_productId].itemState);\n  distributorID = items[_productId].distributorID;\n  retailerID = items[_productId].retailerID;\n  consumerID = items[_productId].consumerID;\n    \n  return \n  (\n  itemSKU,\n  itemUPC,\n  productID,\n  productNotes,\n  productPrice,\n  itemState,\n  distributorID,\n  retailerID,\n  consumerID\n  );\n  }\n}\n",
  "sourcePath": "G:\\Documentos\\Blockchain-Udacity\\SupplyChain\\contracts\\coffeebase\\SupplyChain.sol",
  "compiler": {
    "name": "solc",
    "version": "0.8.1+commit.df193b15.Emscripten.clang"
  },
  "schemaVersion": "3.4.6",
  "updatedAt": "2022-05-16T20:31:53.094Z",
  "networkType": "ethereum",
  "devdoc": {
    "kind": "dev",
    "methods": {},
    "version": 1
  },
  "userdoc": {
    "kind": "user",
    "methods": {
      "isOwner()": {
        "notice": "Check if the calling address is the owner of the contract"
      },
      "owner()": {
        "notice": "Look up the address of the owner"
      },
      "renounceOwnership()": {
        "notice": "Define a function to renounce ownerhip"
      },
      "transferOwnership(address)": {
        "notice": "Define a public function to transfer ownership"
      }
    },
    "version": 1
  }
}